:100000000C9463000C948B000C948B000C94F208FD
:100010000C94F2080C94F2080C948B000C948B0056
:100020000C948B000C948B000C948B000C948B0024
:100030000C948B000C948B000C948B000C948B0014
:100040000C9450080C948B000C94C0080C949A08E3
:100050000C948B000C948B000C948B000C948B00F4
:100060000C946A090C948B00000000002400270007
:100070002A0000000008000201000003040700003D
:1000800000000000000000000000230026002900FE
:1000900000000000250028002B00040404040404D0
:1000A0000404020202020202030303030303010227
:1000B00004081020408001020408102001020408F6
:1000C0001020890A921111241FBECFEFD8E0DEBFA5
:1000D000CDBF11E0A0E0B1E0EEEDF5E202C0059089
:1000E0000D92A234B107D9F724E0A2E4B1E001C037
:1000F0001D92A736B207E1F710E0C2E6D0E004C0D7
:100100002197FE010E94DC12C136D107C9F70E9477
:10011000520B0C94E2120C940000809134049091E4
:100120003504892B59F1E0910903F0910A0384E029
:10013000EA31F80719F1309739F0A389B4899C9115
:100140008589809589238C93809138048E7F809354
:10015000380410920803109207038AE194E0909308
:100160000A0380930903E0912D04F0912E0480810D
:1001700090912F04892B808381E0089580E0089579
:10018000833081F028F4813099F08230A9F008950D
:100190008730A9F08830C9F08430B1F480918000B4
:1001A0008F7D03C0809180008F77809380000895B9
:1001B00084B58F7784BD089584B58F7DFBCF809102
:1001C000B0008F778093B00008958091B0008F7D4C
:1001D000F9CF1F93CF93DF93282F30E0F901EE582A
:1001E000FF4F8491F901E255FF4FD491F901E65692
:1001F000FF4FC491CC23A9F0162F81110E94C0009B
:10020000EC2FF0E0EE0FFF1FE057FF4FA591B491E8
:100210008FB7F894EC91111108C0D095DE23DC93D0
:100220008FBFDF91CF911F910895DE2BF8CFCF9331
:10023000DF9390E0FC01E255FF4F249186569F4FDB
:10024000FC0184918823D1F090E0880F991FFC0174
:10025000E859FF4FA591B491FC01E057FF4FC591BC
:10026000D49161110EC09FB7F8948C91E22FE09564
:100270008E238C932881E223E8839FBFDF91CF9167
:1002800008958FB7F894EC91E22BEC938FBFF6CFE3
:100290003FB7F8948091030390910403A091050364
:1002A000B091060326B5A89B05C02F3F19F0019613
:1002B000A11DB11D3FBFBA2FA92F982F8827BC01C0
:1002C000CD01620F711D811D911D42E0660F771FE8
:1002D000881F991F4A95D1F708958F929F92AF92E8
:1002E000BF92CF92DF92EF92FF924B015C010E948E
:1002F00048016B017C010E9448016C197D098E093F
:100300009F09683E734081059105A8F321E0821A98
:100310009108A108B10888EEC80E83E0D81EE11C40
:10032000F11C81149104A104B10429F7FF90EF900E
:10033000DF90CF90BF90AF909F908F9008951F93C4
:10034000CF93DF93182FC3E0D0E061E0812F0E94AC
:10035000E9006EE170E080E090E00E946D0160E0F5
:10036000812F0E94E9006EE170E080E090E00E9441
:100370006D01219751F7DF91CF911F9108952FB70C
:10038000F8946091FF0270910003809101039091B5
:1003900002032FBF089508950895AF92BF92CF92A0
:1003A000DF92EF92FF920F931F93CF93DF936C0135
:1003B0007B018B01040F151FEB015E01AE18BF0816
:1003C000C017D10759F06991D601ED91FC910190C8
:1003D000F081E02DC6010995892B79F7C501DF91E0
:1003E000CF911F910F91FF90EF90DF90CF90BF9032
:1003F000AF900895FC01538D448D252F30E0842F5C
:1004000090E0821B930B541710F0CF96089501973C
:100410000895FC01918D828D981761F0A28DAE0F29
:10042000BF2FB11D5D968C91928D9F5F9F73928FB0
:1004300090E008958FEF9FEF0895FC01918D828DDC
:10044000981731F0828DE80FF11D858D90E00895A9
:100450008FEF9FEF0895FC01918D228D892F90E001
:10046000805C9F4F821B91098F73992708958DE7B8
:1004700093E00E942B0221E0892B09F420E0822FD7
:10048000089580E090E0892B29F00E9437028111C5
:100490000C9400000895FC01A48DA80FB92FB11D84
:1004A000A35ABF4F2C91848D90E001968F739927AA
:1004B000848FA689B7892C93A089B1898C91837088
:1004C00080648C93938D848D981306C00288F38981
:1004D000E02D80818F7D80830895EF92FF920F93AE
:1004E0001F93CF93DF93EC0181E0888F9B8D8C8DE0
:1004F00098131AC0E889F989808185FF15C09FB7D4
:10050000F894EE89FF896083E889F9898081837096
:10051000806480839FBF81E090E0DF91CF911F9145
:100520000F91FF90EF900895F62E0B8D10E00F5F66
:100530001F4F0F731127E02E8C8D8E110CC00FB63C
:1005400007FCFACFE889F989808185FFF5CFCE01D4
:100550000E944B02F1CFEB8DEC0FFD2FF11DE35A02
:10056000FF4FF0829FB7F8940B8FEA89FB89808157
:100570008062CFCF682F8DE793E00C946D02CF930C
:10058000DF93EC01888D8823B9F0AA89BB89E889BB
:10059000F9898C9185FD03C0808186FD0DC00FB661
:1005A00007FCF7CF8C9185FFF2CF808185FFEDCFDF
:1005B000CE010E944B02E9CFDF91CF9108952091A7
:1005C000090330910A032817390771F49091070342
:1005D00080910803981741F0E0910703F0E0EA5793
:1005E000FE4F808190E008958FEF9FEF089508956A
:1005F000EF92FF920F931F93CF93DF93DC015C96F2
:10060000ED90FC905D97E114F10479F481E090E0C5
:1006100013969C938E93129790E080E0DF91CF9198
:100620001F910F91FF90EF9008955196ED91FC91DD
:10063000529750968C915097982F90950FB75E9641
:100640002C915E97122F127021FD6095F8942081F5
:10065000112319F1282B2083E7012197F1F728E0D6
:10066000462F50E0308160FF1AC0382B3083E701FD
:100670002197F1F7BA0175956795215089F71123F4
:1006800081F08081892380830FBF5C968D919C913E
:100690000197F1F781E090E0C1CF2923DCCF392326
:1006A000E5CF9081892BEFCF2091090330910A0388
:1006B0002817390761F4809108032091070390E01F
:1006C000805C9F4F821B91098F739927089590E05A
:1006D00080E008952091090330910A032817390713
:1006E000B9F49091070380910803981789F0E0917D
:1006F0000703F0E0EA57FE4F80812091070330E0C6
:100700002F5F3F4F2F7333272093070390E0089507
:100710008FEF9FEF089520916301260F3327331F3A
:1007200021323105ECF420915303FC0190E080E08C
:10073000243069F082E00895A09163012191AC0119
:100740004D5B5E4FA40FB52FB11D2C9301968617FC
:1007500098F380916301680F6093630180E00895CE
:1007600081E008951092530381E080935203109228
:100770002D0361E082E10E94E90061E083E10E94D3
:10078000E900E9EBF0E080818E7F808380818D7FBE
:10079000808388E48093B80085E48093BC0008954A
:1007A000CF93DF9391E0909342018823B9F0C091F9
:1007B000B800D091BA008091BC008A7B8093BC00C5
:1007C00060E082E10E94E90060E083E10E94E900CC
:1007D0000E94B203D093BA00C093B800DF91CF91CA
:1007E00008958F929F92AF92BF92CF92DF92EF9235
:1007F000FF920F931F93CF93DF93D0917C03D1325D
:1008000008F0D7C0182FC0917B030E9448016B01EC
:100810007C018091530381116BC082E0809353036C
:10082000109352038FEF8093510310925003D09393
:100830004F03ABE5B3E0EFE2F3E080E0D81391C003
:1008400010922E0380912E03CC0FC82BC0932E0341
:1008500080912D03813009F088C010922D030E94F1
:1008600048016B017C0180912E038093BB00809135
:10087000550390915603A0915703B0915803892BCB
:100880008A2B8B2BA1F00E944801009155031091F7
:10089000560320915703309158036C197D098E0936
:1008A0009F09061717072807390708F442C08091E7
:1008B000BC0083FDD8CF85EC8093BC000E9448012A
:1008C0006B017C0180915303823009F450C0809108
:1008D00051038F3F09F46FC080915103803209F4B6
:1008E0006CC080915103803309F469C084E026C054
:1008F0008091550390915603A0915703B0915803EE
:10090000892B8A2B8B2B09F484CF0E94480180907D
:10091000550390905603A0905703B09058036C195C
:100920007D098E099F0986169706A806B90608F064
:1009300070CF809154030E94D00385E010925A0337
:1009400010927C0310925903DF91CF911F910F9168
:10095000FF90EF90DF90CF90BF90AF909F908F90DF
:1009600008959D9191938F5F69CF85EEA5CF80917A
:10097000550390915603A0915703B0915803892BCA
:100980008A2B8B2B09F49ECF0E94480100915503BE
:100990001091560320915703309158036C197D092B
:1009A0008E099F09061717072807390708F08ACF0D
:1009B000C0CF81E0C3CF80E0C1CF82E0BFCF83E072
:1009C000BDCF0F931F93CF93DF93162F072FC5E44F
:1009D000D4E0AD85BE859F8521E020935903909397
:1009E0007B0310925A0310927C03ED91FC911197B6
:1009F0000190F081E02D682FCD0109958D859E85B0
:100A0000DC01ED91FC910190F081E02D602F0995C2
:100A10008D859E85DC01ED91FC910190F081E02DAA
:100A2000612F099581E0DF91CF911F910F910C9477
:100A3000F103E0910C0380910B03E81730F4F0E030
:100A4000E35FFC4F808190E008958FEF9FEF089562
:100A500090910C0380910B032FEF3FEF981748F410
:100A6000E92FF0E0E35FFC4F208130E09F5F90933F
:100A70000C03C901089580910B0390910C03891B0D
:100A8000990B0895CF92DF92EF92FF920F931F93ED
:100A9000CF93DF937C01CB018A012091590322235C
:100AA00089F0EB016B01C40ED51ECC15DD0569F094
:100AB0006991D701ED91FC910190F081E02DC70182
:100AC0000995F3CF642F0E948B03C801DF91CF916A
:100AD0001F910F91FF90EF90DF90CF900895CF93EB
:100AE000DF931F92CDB7DEB769832091590322238C
:100AF000F9F020917C03203258F021E030E0FC0135
:100B00003383228390E080E00F90DF91CF910895AE
:100B100080915A03E82FF0E0E55AFC4F99819083C9
:100B20008F5F80935A0380937C0381E090E0ECCF49
:100B300061E0CE0101960E948B03F7CF90E080E048
:100B400008958091F9029091FA0201969093FA0229
:100B50008093F90285E10C94BA022091D901309179
:100B6000DA018091E4029091E5022032310511F41E
:100B7000807F08952034310511F4807E0895203857
:100B8000310511F4807C08952115314009F48078F5
:100B900008958DE793E00E942B02892BD1F38DE716
:100BA00093E00E9409020895CF93C82F0E94C905BF
:100BB000803251F484E10E94BA028C2F0E94BA0262
:100BC00080E1CF910C94BA028091F9029091FA02DF
:100BD00001969093FA028093F90285E1F2CF0E9488
:100BE000C905803231F484E10E94BA0280E10C949C
:100BF000BA028091F9029091FA0201969093FA025A
:100C00008093F90285E1F3CF0F931F93CF93DF9386
:100C10008C01C1EED1E0CE01815E91408017910739
:100C200024F40E94C9058993F6CFDF91CF911F91DB
:100C30000F9108958EBD00000DB407FEFDCF8EB557
:100C400008951F93CF93DF93162FD42FC22F0E94A6
:100C50001A06812F0E941A068D2F0E941A068C2FC9
:100C6000DF91CF911F910C941A06EF92FF920F9390
:100C70001F93CF93DF93EC018B01CB010E940406FD
:100C800060E087E00E94E90081EEE82E81E0F82E26
:100C90000C0F1D1FC017D10781F0F70121917F01B3
:100CA0004C2F6D2F80EC0E9421066DE270E080E0F9
:100CB00090E00E946D012196EDCF61E087E00E94F7
:100CC000E90080E1DF91CF911F910F91FF90EF90AC
:100CD0000895CF93DF93D82FC92F60E087E00E945B
:100CE000E90020E04D2F6C2F8CE40E9421066EE17C
:100CF00070E080E090E00E946D0161E087E0DF91AC
:100D0000CF910C94E900CF92DF92EF92FF920F9374
:100D10001F93CF93A0915204B09153049091540427
:100D200021E02093590390937B0310925A03109271
:100D30007C03ED91FC9111970190F081E02D682FDB
:100D4000CD01099580E00E94F10380936604C09173
:100D500054040E9448016B017C018091530381116E
:100D600065C081E080935303809352039FEF90937B
:100D700051031092500380934F0380932E03809170
:100D80002E03CC0FC82BC0932E0380912D038130EE
:100D900009F0AAC010922D030E9448016B017C014A
:100DA00080912E038093BB00809155039091560350
:100DB000A0915703B0915803892B8A2B8B2BA1F05C
:100DC0000E9448010091550310915603209157034A
:100DD000309158036C197D098E099F090617170772
:100DE0002807390708F443C08091BC0083FDD8CFA1
:100DF00085EC8093BC000E9448016B017C018091CE
:100E00005303813009F472C080915003823008F09E
:100E10008FC080915003EFE2F3E0ADE0B3E090E0EB
:100E2000981751F121912D939F5FFACF809155032F
:100E300090915603A0915703B0915803892B8A2BA8
:100E40008B2B09F48ACF0E94480100915503109121
:100E5000560320915703309158036C197D098E0970
:100E60009F09061717072807390708F076CF8091E2
:100E700054030E94D00380E010920C0380930B0374
:100E80008091520490915304DC01ED91FC91008417
:100E9000F185E02D0995892B09F44CC0809152040D
:100EA00090915304DC01ED91FC910284F385E02DD7
:100EB0000995C82F8091520490915304DC01ED9163
:100EC000FC910284F385E02D09952C2F30E0322F20
:100ED0002227820F932F911DCF911F910F91FF9089
:100EE000EF90DF90CF90089585EE83CF80915503EA
:100EF00090915603A0915703B0915803892B8A2BE8
:100F00008B2B09F47CCF0E9448010091550310916E
:100F1000560320915703309158036C197D098E09AF
:100F20009F09061717072807390708F068CF9FCFD2
:100F300082E071CF80E0C0E0C8CFCF92DF92EF9225
:100F4000FF92CF93DF9384E00E948306BC01990F48
:100F5000880B990B0E94271220915E0430915F0448
:100F600040916004509161040E94B3116B017C01B7
:100F700020E030E044EB52E40E94AE1187FF0AC04B
:100F800060E089E0DF91CF91FF90EF90DF90CF900C
:100F90000C94E90020E030E044EB52E4C701B601D4
:100FA0000E94D71287FD19C020E030E041E153E4F0
:100FB000C701B6010E94AE1118167CF0C8EED3E04E
:100FC00061E089E00E94E9002197D1F760E088E0C4
:100FD0000E94E90060E087E0D5CF20E030E04AE2FF
:100FE00053E4C701B6010E94D712181634F460E02A
:100FF00089E00E94E90061E0EACF20E030E044E1CE
:1010000053E4C701B6010E94D712181654F460E0E9
:1010100089E00E94E90060E088E00E94E90061E068
:10102000DACFDF91CF91FF90EF90DF90CF900895CE
:1010300085ED8093BC008091550390915603A0915B
:101040005703B09158030796A11DB11D23E0B69533
:10105000A795979587952A95D1F72091BC0024FDF7
:1010600003C01092530308954091550350915603C5
:101070006091570370915803452B462B472B69F31A
:101080000097A105B10541F02AE22A95F1F700C0C9
:101090000197A109B109E1CF809154030C94D003C9
:1010A0001F920F920FB60F9211242F933F938F939D
:1010B0009F93AF93BF938091FF0290910003A09103
:1010C0000103B09102033091FE0223E0230F2D377C
:1010D00058F50196A11DB11D2093FE028093FF02D9
:1010E00090930003A0930103B09302038091030344
:1010F00090910403A0910503B09106030196A11DF0
:10110000B11D8093030390930403A0930503B09350
:101110000603BF91AF919F918F913F912F910F90B7
:101120000FBE0F901F90189526E8230F0296A11D61
:10113000B11DD2CF1F920F920FB60F9211242F9391
:101140003F934F935F936F937F938F939F93AF934F
:10115000BF93EF93FF938DE793E00E944B02FF91C3
:10116000EF91BF91AF919F918F917F916F915F911F
:101170004F913F912F910F900FBE0F901F90189598
:101180001F920F920FB60F9211242F938F939F935C
:10119000EF93FF93E0918D03F0918E038081E091B6
:1011A0009303F091940382FD1BC09081809196037C
:1011B0008F5F8F7320919703821741F0E091960320
:1011C000F0E0E358FC4F958F80939603FF91EF91E9
:1011D0009F918F912F910F900FBE0F901F90189598
:1011E0008081F4CF1F920F920FB60F9211242F938C
:1011F0003F934F935F936F937F938F939F93AF939F
:10120000BF93EF93FF93E0910903F0910A033097A6
:1012100049F0A685B7858585968D91FF14C09C9170
:101220008923A1F4FF91EF91BF91AF919F918F918D
:101230007F916F915F914F913F912F910F900FBED2
:101240000F901F9018959C91892361F7A389B48909
:101250009C918589809589238C93868997890197AC
:10126000F1F7608D718DA685B785558538E020E052
:10127000CB010197F1F7822F90E095958795282F64
:101280004C91452309F02068315091F7868D81FDFE
:1012900020958091080390E001968F7399273091F3
:1012A0000703381799F0A0910803B0E0AA57BE4F82
:1012B0002C9380930803828D938D0197F1F7A38976
:1012C000B4898C919589892B8C93ACCF868D816064
:1012D000868FF1CF1F920F920FB60F9211242F938A
:1012E0003F934F935F936F937F938F939F93AF93AE
:1012F000BF93EF93FF938091B900887F803609F404
:101300004AC0F0F5883209F4A7C018F5803109F415
:101310009BC0B8F4882309F4F9C0883009F494C05C
:10132000FF91EF91BF91AF919F918F917F916F91BD
:101330005F914F913F912F910F900FBE0F901F9093
:101340001895883109F488C0803251F78093510391
:1013500014C0803409F49DC040F48033B9F388335D
:10136000F9F68093510385ECB0C0803509F485C04F
:10137000883509F496C0883499F60E941808D0CFB1
:10138000883909F48CC038F5883729F050F488364C
:1013900011F0803729F683E0809353031092850182
:1013A00057C0883809F47BC0803919F0803809F0BB
:1013B000B7CF80918501803208F071C0E09185013E
:1013C00081E08E0F809385018091BB00F0E0EB59A6
:1013D000FE4F80833DC0803B39F0E0F4803A09F451
:1013E00079C0883A09F09CCF84E08093530310922F
:1013F000640110926301E091C801F091C90109955F
:101400008091630181110FC081E08093630110928C
:10141000430109C0803C09F4A6CF883C09F4A3CF5E
:10142000883B09F07DCFE091640181E08E0F8093CD
:101430006401F0E0ED5BFE4F80818093BB009091F2
:1014400064018091630129C080912E038093BB00C9
:1014500085EC8093BC0064CF9091500380914F0342
:10146000981758F5E091500381E08E0F8093500358
:10147000F0E0E15DFC4F8081E9CFE091500381E035
:101480008E0F809350038091BB00F0E0E15DFC4F34
:1014900080839091500380914F039817C8F285E89C
:1014A000D8CFE091500381E08E0F8093500380915C
:1014B000BB00F0E0E15DFC4F80838091520381111D
:1014C0005CCF81E080932D0384EA8093BC0010926E
:1014D000530326CF85EC8093BC0010925303809178
:1014E0008501803230F4E0918501F0E0EB59FE4F48
:1014F00010826091850170E0E091C601F091C70112
:1015000085E691E00995109285010ACF109251036A
:1015100034CF1092800310927F0388EE93E0A0E016
:10152000B0E08093810390938203A0938303B093F0
:10153000840328E031E030937E0320937D0325EC83
:1015400030E030938A032093890324EC30E0309319
:101550008C0320938B0320EC30E030938E03209398
:101560008D0321EC30E03093900320938F0322EC25
:1015700030E0309392032093910326EC30E03093D7
:101580009403209393031092960310929703109262
:1015900098031092990310923C0410923B0480939C
:1015A0003D0490933E04A0933F04B09340042AE18D
:1015B00031E030933A042093390429E334E0309346
:1015C00053042093520420E430E0309355042093D8
:1015D000540410921D0410921C0480931E049093D6
:1015E0001F04A0932004B09321048CE291E0909317
:1015F0001B0480931A04109231041092300410924C
:101600003304109232041092350410923404109274
:10161000370410923604609138046E7F6D7F6093BA
:1016200038046695617081E0682785E00E94E900D2
:1016300061E085E00E941701E3EBF0E0E491E093C4
:101640002A04EFE9F0E0E491F0E0EE0FFF1FE0572D
:10165000FF4F8591949190932C0480932B0460E02C
:1016600082E00E9417018091380481FD04C061E08E
:1016700082E00E94E90082E080932604E0EBF0E043
:10168000E491E0932704ECE9F0E0E491F0E0EE0F60
:10169000FF1FEA57FF4F85919491909329048093FF
:1016A00028040895789484B5826084BD84B58160EF
:1016B00084BD85B5826085BD85B5816085BD80911D
:1016C0006E00816080936E00109281008091810095
:1016D000826080938100809181008160809381008D
:1016E000809180008160809380008091B10084604F
:1016F0008093B1008091B00081608093B0008091B0
:101700007A00846080937A0080917A00826080936E
:101710007A0080917A00816080937A0080917A00CB
:10172000806880937A001092C10060E083E00E949C
:101730001701E0918D03F0918E0382E08083E091A8
:101740008903F0918A031082E0918B03F0918C035E
:1017500087E6808310929503E0919103F0919203C4
:1017600086E08083E0918F03F09190038081806117
:101770008083E0918F03F091900380818860808363
:10178000E0918F03F0919003808180688083E091E5
:101790008F03F091900380818F7D8083E5E7F0E0F7
:1017A0008491E1EBF0E0D491EDE9F0E0C491CC2339
:1017B00079F081110E94C000EC2FF0E0EE0FFF1FC6
:1017C000EA57FF4FA591B491EC91ED2381E009F424
:1017D00080E081708093FD0260E082E00E9417014A
:1017E00061E085E00E9417011092350410923404E4
:1017F000109233041092320410923104109230048B
:1018000082E490E09093370480933604909126040C
:10181000963108F047C02FE030E030933104209338
:10182000300420E430E0309333042093320427E284
:1018300030E030933504209334042091680084E034
:10184000983048F031E09E3008F430E081E001C08B
:10185000880F3A95EAF7822B809368002DE630E0F6
:10186000983050F02BE630E09E3030F02CE630E03F
:10187000963110F030E020E030932E0420932D04B8
:10188000292F30E0983008F00AC181E001C0880FAC
:101890009A95EAF780932F0480913604909137044B
:1018A0000197F1F70E948D0061E087E00E94170127
:1018B00087E090E00E949F0161E088E00E941701AC
:1018C00088E090E00E949F0161E089E00E9417019A
:1018D00089E090E00E949F0160E084E00E9417018F
:1018E00010920C0310920B0310925A0310927C0377
:1018F0000E94B2038BEC91E09093C9018093C801E0
:101900008CEC91E09093C7018093C60180915404C0
:1019100091E09093590380937B0381E00E94F1034F
:101920008111CAC060E070E80E94E10480E098E0A4
:10193000909357048093560460E078E085E00E941D
:10194000E104109249041092480480E00E9483064A
:10195000917F6091480470914904682B792B80E055
:101960000E94E10480E00E94830687709E7FBC0194
:101970006062716080E00E94E10487E090E09093F3
:101980004D0480934C0480E00E948306887F609120
:101990004C0470914D04682B792B80E00E94E10487
:1019A00080E090E0A0E2B2E480935E0490935F0454
:1019B000A0936004B093610480E090E0A0E2BFE3F4
:1019C0008093620490936304A0936404B0936504CD
:1019D000109246041092470480E090E0A0E8BFE334
:1019E0008093580490935904A0935A04B0935B04D5
:1019F000109266044BE8A42EBB24B3945BE7252E1B
:101A000050E0352E60E0462E60E0562E8824839408
:101A1000912C772473948091FD028111A4C380914D
:101A2000FB029091FC0261E0892B09F460E087E001
:101A30000E94E9008091F9029091FA0261E0892BFD
:101A400009F460E088E00E94E9000E94BF01009173
:101A5000CA011091CB012091CC013091CD016B01D5
:101A60007C01C01AD10AE20AF30A97018601083202
:101A700011052105310508F445C06093CA01709332
:101A8000CB018093CC019093CD01C0910101809155
:101A90000001C13C30F181958093000124C09E304B
:101AA00040F42850310981E001C0880F2A95EAF7F7
:101AB000F1CE2E503109F7CF61E088E00E94E900B5
:101AC00064EF71E080E090E00E946D0160E088E0EA
:101AD0000E94E90064EF71E080E090E00E946D01F7
:101AE000EBCFC032C0F280910001C80FC09301015A
:101AF00061E089E00E941701C1112BC060E089E01C
:101B00000E94E9008DE793E00E942B02892B09F4E3
:101B100059C20E94C905813509F4C6C208F0EBC05C
:101B2000813409F475C108F05AC0803309F457C1F3
:101B3000813309F45BC1803209F005C38091F90259
:101B40009091FA0201969093FA028093F90285E14E
:101B50002EC2CF3F11F461E0D2CFF10184918330E6
:101B600019F138F48130B1F08230C9F0C7FDF3CFFC
:101B7000C5CF873021F1883051F18430B9F7809199
:101B80008000806280938000D0E0D0938B00C0936F
:101B90008A00B8CF84B5806884BDC7BDB3CF84B593
:101BA000806284BDC8BDAECF809180008068809384
:101BB0008000D0E0D0938900C0938800A3CF8091AB
:101BC000B00080688093B000C093B3009BCF809139
:101BD000B00080628093B000C093B40093CF85348E
:101BE00009F42DC1803509F42FC1823409F0ABC24C
:101BF00084E190E00E9404062091E1012093CE014F
:101C00008091E2018093CF018091E3018093D00124
:101C10008091E4018093D1018091E5018093D2010C
:101C20008091E6018093D3018091E7018093D401F4
:101C30008091E8018093D5018091E9018093D601DC
:101C40008091EB0190E0982F88273091EC01830F71
:101C5000911D9093D8018093D7018091ED0190E080
:101C6000982F88273091EE01830F911D9093DA0110
:101C70008093D9018091EF0190E0982F88273091CF
:101C8000F001830F911D9093DC018093DB01809123
:101C9000F10190E0B0E0A0E0BA2FA92F982F88279B
:101CA0003091F201830F911DA11DB11DDC01992717
:101CB00088274091F30150E0542F4427052E000C53
:101CC000660B770B840F951FA61FB71F3091F40189
:101CD000830F911DA11DB11D8093DD019093DE0145
:101CE000A093DF01B093E00181E0203E08F480E0A2
:101CF0008093E30278C0813609F424C1C0F48635AC
:101D000009F4C3C1803609F41BC1853509F01BC233
:101D10000E94C905C82F0E94C90590E0982F882706
:101D20008C0F911D9093E5028093E4025CC0843790
:101D300009F454C1853709F4E5C1843609F003C2BA
:101D40000E94C905C82FD0E0DC2FCC270E94C9050E
:101D5000C80FD11D0E94C905863409F0FAC0CE0112
:101D60000E9404060E94C905803209F0E7CE84E192
:101D70000E94BA020E94AD056C0151EEE52E51E0C1
:101D8000F52EC701815E91408C179D070CF0DDC0D8
:101D90000E94AD058C159D0531F0C6010E946906B3
:101DA0000E94AD056C010091E4021091E502F7017B
:101DB0002081402F612F80E40E942106F7012181BC
:101DC000402F612F88E40E9421060F5F1F4F109360
:101DD000E5020093E402F2E0EF0EF11CD2CF109284
:101DE000FA021092F9020E94EF05ECC00E94C905A8
:101DF000803209F0A3CE84E10E94BA0247E050E0AD
:101E00006AE371E08DE793E00E94CD0180E1CFC0ED
:101E10000E94C905813879F020F4803841F080E0D3
:101E200007C0823851F08339D1F783E501C082E0E1
:101E30000E94D405C7C081E0FBCF82E1F9CF85E0E5
:101E400090E00E940406CFCF8091FB029091FC02AB
:101E5000892B49F66091E3028AE00E94E90061E083
:101E60008AE00E941701CFB7F8948091E2028111B5
:101E700027C0E4EAF0E08491E8EBF0E09491E82FE9
:101E8000F0E0EE0FFF1FE859FF4FA591B4918C9140
:101E9000982321F461E08AE00E94E90061E08AE091
:101EA0000E9417018CB580618CBD8CB580648CBD9F
:101EB00061E08DE00E94170161E08BE00E94170154
:101EC0008091E2028F5F8093E202CFBF8091E102B6
:101ED000882351F08FB7F8949091E102913021F46A
:101EE0009DB39DB39DBB8FBF83E58CBD1DBC60E0E2
:101EF0008DE00E94E90064E170E080E090E00E94E3
:101F00006D01C091E3026C2F67258AE00E94E90011
:101F1000C5010197F1F76C2F8AE00E94E90062E3A6
:101F200070E080E090E00E946D0120E040E063E519
:101F30008CEA0E9421069092FC028092FB0253CF11
:101F40000E94C9050E94C9054ECFC6010E946906BC
:101F50005DCF853409F097C08091DB019091DC0161
:101F60008C179D0790F00091E4021091E502000F9C
:101F7000111FC132D105F0F060E270E0C8010E948B
:101F80003506005E1F4FA097F4CF8091F902909123
:101F9000FA0201969093FA028093F902C1E10E943D
:101FA000C905803269F484E10E94BA028C2F0E9434
:101FB000BA0208C0BE01C8010E943506C0E1EFCFD9
:101FC0000E94A1054114510409F425CD0E94370255
:101FD000882309F41ECD0E9400001BCD0E94C90574
:101FE000082F0E94C905D82F0E94C905C82F0E943A
:101FF000C905803219F00E94A105E4CF10E0102F2E
:1020000000270D0F111D84E10E94BA02C63419F594
:10201000F12CE12CE016F1060CF0F8CEC091E402B0
:10202000D091E50220E04C2F6D2F80E20E94210626
:102030000E94BA0220E04C2F6D2F88E20E942106F8
:102040000E94BA022196D093E502C093E40222E0F6
:10205000E20EF11CDFCFC534B1F4C091E402D0919F
:10206000E502CC0FDD1F0C0F1D1F0C171D0709F417
:10207000CDCE2FEF4C2F6D2F80EA0E9421060E94BB
:10208000BA022196F2CF81E192CF84E090E00E94E3
:1020900004062091E4014091E3016091E201809106
:1020A000E1010E942106C4CE1092FA021092F902B8
:1020B0009FB7F8948091E202882319F081508093B1
:1020C000E2028091E202811105C08CB58F7B8CBD4C
:1020D0001092E1029FBF60E08BE00E94170160E078
:1020E0008DE00E9417016091E30267258AE00E945B
:1020F000E90060E08AE00E9417011092FC02109251
:10210000FB0271CE0E94C905803209F017CD84E12F
:102110000E94BA0220E040E060E080E30E942106D5
:102120000E94BA0220E041E060E080E30E942106C4
:102130000E94BA0220E042E060E080E30E942106B3
:102140000E94BA0263CE8091F9029091FA02019640
:102150009093FA028093F9020E94C905803209F037
:10216000F6CC82E124CF0E948D008AE194E00E94A7
:102170005403892B51F18AE194E00E946A03C82F2D
:102180008FEF8C0F8E3F08F01DCF6EE170E080E086
:1021900090E00E946D01CB31C1F48AE194E00E948D
:1021A0005403892B91F08AE194E00E946A038093A2
:1021B000F802853308F05DC0833308F07DC08133B9
:1021C00009F462C0823309F470C08091F702882359
:1021D00009F4A6C08091EF0281110CC00E94BF01DA
:1021E0006093EB027093EC028093ED029093EE0209
:1021F0007092EF028091F80294E6C92ED12CE12C66
:10220000F12C843331F084EFC82EDD24D394E12CFB
:10221000F12C80910201882309F45BC061E089E020
:102220000E94E9000E94BF010091EB021091EC02B4
:102230002091ED023091EE02601B710B820B930B2B
:10224000603D77408105910560F0109202010E9487
:10225000BF016093E7027093E8028093E9029093D4
:10226000EA0280910301882309F4ACCE0E949D0705
:10227000A9CE853309F0A9CF80910301882309F401
:10228000A4CF0E949D07A1CF61E087E00E94E900F2
:1022900060E088E00E94E90060E089E00E94E900D7
:1022A0001092F7027092030190CF61E088E00E94E3
:1022B000E90060E087E0EECF7092F7021092030130
:1022C00060E088E00E94E90060E087E00E94E900A9
:1022D0007CCF0E94BF010091E7021091E80220919B
:1022E000E9023091EA02601B710B820B930B6C15B3
:1022F0007D058E059F0508F4B4CF0E94BF01609351
:10230000E7027093E8028093E9029093EA026091F9
:10231000E60267256093E60289E00E94E900A1CF0A
:1023200060E0FACF8CE291E090931B0480931A0452
:102330008091090390910A038A51944071F4E091CD
:102340002D04F0912E04908180912F048095892393
:10235000808310920A031092090308950E9462126A
:1023600008F481E008950E94C7110C949D120E9408
:10237000961258F00E948F1240F029F45F3F29F026
:102380000C94861251110C94D1120C948C120E9450
:10239000AE1268F39923B1F3552391F3951B550BB6
:1023A000BB27AA2762177307840738F09F5F5F4F28
:1023B000220F331F441FAA1FA9F335D00E2E3AF067
:1023C000E0E832D091505040E695001CCAF72BD07F
:1023D000FE2F29D0660F771F881FBB1F26173707D0
:1023E0004807AB07B0E809F0BB0B802DBF01FF2702
:1023F00093585F4F3AF09E3F510578F00C94861247
:102400000C94D1125F3FE4F3983ED4F38695779510
:102410006795B795F7959F5FC9F7880F911D9695BA
:10242000879597F90895E1E0660F771F881FBB1F16
:10243000621773078407BA0720F0621B730B840BC3
:10244000BA0BEE1F88F7E0950895E89409C097FB52
:102450003EF490958095709561957F4F8F4F9F4F7B
:102460009923A9F0F92F96E9BB279395F6958795BF
:1024700077956795B795F111F8CFFAF4BB0F11F482
:1024800060FF1BC06F5F7F4F8F4F9F4F16C0882329
:1024900011F096E911C0772321F09EE8872F762F5F
:1024A00005C0662371F096E8862F70E060E02AF0A0
:1024B0009A95660F771F881FDAF7880F969587958C
:1024C00097F90895990F0008550FAA0BE0E8FEEF61
:1024D00016161706E807F907C0F012161306E407E8
:1024E000F50798F0621B730B840B950B39F40A26E1
:1024F00061F0232B242B252B21F408950A2609F4BF
:10250000A140A6958FEF811D811D089597F99F67C2
:1025100080E870E060E008959FEF80EC089500246B
:102520000A941616170618060906089500240A9438
:1025300012161306140605060895092E0394000CBE
:1025400011F4882352F0BB0F40F4BF2B11F460FF4D
:1025500004C06F5F7F4F8F4F9F4F089557FD905876
:10256000440F551F59F05F3F71F04795880F97FB57
:10257000991F61F09F3F79F0879508951216130611
:102580001406551FF2CF4695F1DF08C01616170640
:102590001806991FF1CF8695710561050894089575
:1025A000E894BB2766277727CB0197F908950E9407
:1025B000621208F48FEF0895EE0FFF1F0590F4915B
:1025C000E02D099410E0C2E6D0E004C0FE010E94B4
:0E25D000DC122196C336D107C9F7F894FFCF6D
:1025DE0008800101000000006D02CD01FA01BF026A
:1025EE002B0209021D02000000006F0542059E0528
:1025FE00F7023B052805190500000000F802CD0181
:10260E009E05F70254036A03DF02415652204953D6
:02261E0050006A
:00000001FF
