:100000000C945B000C9483000C9483000C9483008C
:100010000C9483000C9483000C9483000C94830054
:100020000C9483000C9483000C9483000C94830044
:100030000C9483000C9483000C9483000C94830034
:100040000C944B050C9483000C9493050C94C00500
:100050000C9483000C9483000C9483000C94830014
:100060000C942E040C948300302E362E34000000A5
:100070000000250028002B000404040404040404E8
:100080000202020202020303030303030102040843
:1000900010204080010204081020010204081020F2
:1000A0000000000800020100000304070000000037
:1000B00000000000220A11241FBECFEFD8E0DEBFEF
:1000C000CDBF11E0A0E0B1E0E4EFF8E102C005909F
:1000D0000D92AA3AB107D9F723E0AAEAB1E001C02C
:1000E0001D92AD32B207E1F710E0CBE5D0E004C0DD
:1000F0002197FE010E949E0ACA35D107C9F70E94C6
:10010000E6050C94780C0C94000080E090E00895D3
:100110008091090390910803891B990B0895909190
:100120000803809109032FEF3FEF981748F4E92F58
:10013000F0E0E851FD4F208130E09F5F909308038D
:10014000C9010895E091080380910903E81730F48C
:10015000F0E0E851FD4F808190E008958FEF9FEF30
:1001600008950895089508952091E402260F3327F5
:10017000331F21323105ECF42091E702FC0180E0CD
:1001800090E0243069F082E00895A091E40221918A
:10019000AC014C535D4FA40FB52FB11D2C930196AC
:1001A000861798F38091E402680F6093E40280E080
:1001B000089581E00895CF93DF930F92CDB7DEB716
:1001C000FC01698380912C038115F1F080912B0350
:1001D000803250F081E090E09383828380E090E071
:1001E0000F90DF91CF91089580912A03E82FF0E0DE
:1001F000E65FFC4F998190838F5F80932A03809301
:100200002B0381E090E0ECCF61E0CE0101960E94EB
:10021000B400F7CFCF92DF92EF92FF920F931F932C
:10022000CF93DF937C01CB018A0120912C03211510
:10023000D9F0EB016B01C40ED51ECC15DD0551F4D0
:10024000C801DF91CF911F910F91FF90EF90DF9048
:10025000CF9008956991D701ED91FC910190F081C3
:10026000E02DC7010995E9CF642F0E94B400E8CFC3
:100270003FB7F89480916B0290916C02A0916D024F
:10028000B0916E0226B5A89B05C02F3F19F00196CC
:10029000A11DB11D3FBFBA2FA92F982F8827BC01E0
:1002A000CD01620F711D811D911D42E0660F771F08
:1002B000881F991F4A95D1F7089590E0FC01E056F8
:1002C000FF4F2491FC01E457FF4F3491FC01E858A3
:1002D000FF4FE491E11519F1211589F0243001F166
:1002E00050F4223029F12330F9F4809180008F7787
:1002F0008093800004C02730F1F0283011F1F0E045
:10030000EE0FFF1FE259FF4FA591B5919FB7F894EB
:100310008C9161111AC0309538233C939FBF08958A
:10032000809180008F7DE4CF84B58F7784BDE7CF47
:1003300084B58F7DFBCF8091B0008F778093B00024
:10034000DECF8091B0008F7DF9CF832B8C93E6CFE9
:100350001092E70281E08093E6021092E50261E0EC
:1003600082E10E945D0161E083E10E945D01E9EBB1
:10037000F0E080818E7F808380818D7F808388E420
:100380008093B80085E48093BC000895CF93DF93F9
:1003900091E09093BE028115B9F0C091B800D09160
:1003A000BA008091BC008A7B8093BC0060E082E14F
:1003B0000E945D0160E083E10E945D010E94A8014E
:1003C000D093BA00C093B800DF91CF910895FC019B
:1003D000A48DA80FB92FB11DA35ABF4F2C91848DA6
:1003E00090E001968F739927848FA689B7892C9303
:1003F000A089B1898C91837080648C93938D848D56
:10040000981306C00288F389E02D80818F7D808358
:100410000895FC01818D228D90E0805C9F4F821BAE
:1004200091098F73992708958EEC91E00E9409023B
:100430009C0181E0232B09F480E0089580E090E0A6
:10044000892B29F00E94140281110C940000089558
:10045000FC01918D828D981731F0828DE80FF11D8E
:10046000858D90E008958FEF9FEF0895FC01918DA9
:10047000828D981761F0A28DAE0FBF2FB11D5D96D2
:100480008C91928D9F5F9F73928F90E008958FEF74
:100490009FEF0895FC01538D448D842F90E0252F0C
:1004A00030E0821B930B541710F0CF9608950197FC
:1004B0000895CF93DF93EC01888D81110FC0DF91F8
:1004C000CF9108950FB607FC0DC08C9185FF0AC02F
:1004D000808185FF07C0CE010E94E701AA89BB8900
:1004E000E889F9898C9185FDEDCF808186FFEACF7F
:1004F000E6CFEF92FF920F931F93CF93DF93EC0120
:10050000F62E81E0888F9B8D8C8D98131AC0E88918
:10051000F989808185FF15C09FB7F894EE89FF891E
:100520006083E889F98980818370806480839FBFBC
:1005300081E090E0DF91CF911F910F91FF90EF90BC
:1005400008950B8D10E00F5F1F4F0F731127E02EE2
:100550008C8D8E1579F0EB8DEC0FFD2FF11DE35A8C
:10056000FF4FF0829FB7F8940B8FEA89FB89808157
:100570008062DCCF0FB607FCEBCFE889F989808178
:1005800085FFE6CFCE010E94E701E2CFCF92DF9256
:10059000EF92FF920F931F93CF93DF937C016A0139
:1005A00000E010E00C151D0551F4C801DF91CF915A
:1005B0001F910F91FF90EF90DF90CF900895EB0186
:1005C000D701ED91FC910190F081E02D6991C70177
:1005D0000995892B51F30F5F1F4FBE01E3CF4F9257
:1005E0005F926F927F928F929F92AF92BF92CF92C3
:1005F000DF92EF92FF921F93CF93DF9310912B0323
:10060000C1E0113208F09EC0D091B6010E943801BD
:100610002B013C01C091E702C1116EC082E08093C2
:10062000E70281E08093E6028FEF80939A021092B6
:10063000BC021093BB022AE033E0ABE9B2E0F9015F
:100640008E2F821B811708F494C01092BD028091F6
:10065000BD02DD0FD82BD093BD028091E502813021
:1006600009F08AC01092E5020E9438014B015C013A
:100670008091BD028093BB008091C0029091C10225
:10068000A091C202B091C302892B8A2B8B2BA1F0BF
:100690000E9438014090C0025090C1026090C20296
:1006A0007090C302681979098A099B094616570692
:1006B0006806790608F441C08091BC0083FDD8CF5C
:1006C00085EC8093BC000E9438016B017C01809115
:1006D000E702823009F452C080919A028F3F91F173
:1006E00080919A02C2E0803269F180919A02C3E05F
:1006F000803341F1C4E026C08091C0029091C102D4
:10070000A091C202B091C302892B8A2B8B2B09F4D2
:1007100081CF0E9438012091C0023091C1024091E6
:10072000C2025091C30264197509860997092617F8
:1007300037074807590708F06DCF8091BF020E9424
:10074000C601C5E010922A0310922B0310922C03CD
:100750008C2FDF91CF911F91FF90EF90DF90CF9082
:10076000BF90AF909F908F907F906F905F904F90D1
:10077000089581918D9364CF85EEA3CF8091C002BF
:100780009091C102A091C202B091C302892B8A2B21
:100790008B2B09F49CCF0E9438018090C00290906E
:1007A000C102A090C202B090C3026C197D098E09EB
:1007B0009F0986169706A806B90608F088CFBDCF10
:1007C00085ED8093BC008091C0029091C102A09100
:1007D000C202B091C3020796A11DB11D23E0B695D8
:1007E000A795979587952A95D1F72091BC0024FD70
:1007F00003C01092E70208954091C0025091C102D7
:100800006091C2027091C302452B462B472B69F3BE
:100810000097A105B10541F02AE22A95F1F700C041
:100820000197A109B109E1CF8091BF020C94C601E3
:10083000BC01009761F0FC0101900020E9F73197BD
:10084000AF01481B590B8EEC91E00C94C602089541
:100850000E94180484E291E00C9418041F920F92F5
:100860000FB60F9211242F933F934F935F936F9383
:100870007F938F939F93AF93BF93EF93FF93909149
:10088000B900892F887F803509F4C0C008F042C0C4
:10089000803309F4B6C098F5883101F1D0F488307E
:1008A00009F4A7C0803109F4A4C0811509F4F0C08F
:1008B000FF91EF91BF91AF919F918F917F916F9138
:1008C0005F914F913F912F910F900FBE0F901F900E
:1008D0001895803209F495C0883251F79091BC0286
:1008E0008091BB02981778F5E091BC0281E08E0FF1
:1008F0008093BC02F0E0E556FD4F80817CC08034DF
:1009000009F490C0883409F47EC0883389F6809356
:100910009A026DC0803A09F49FC0B8F5803809F496
:1009200089C050F5803611F1D8F4883509F6E09188
:10093000BC0281E08E0F8093BC028091BB00F0E08E
:10094000E556FD4F80838091E60281115CC081E015
:100950008093E50284EA8093BC001092E702A8CF5E
:10096000803721F0987E983609F0A2CF83E08093FB
:10097000E7021092990241C0803909F45BC0987E69
:10098000983809F095CF85E839C0883BD9F058F5FB
:10099000883A19F0803B09F08BCF84E08093E7021E
:1009A000109276021092E402E0917402F0917502C6
:1009B00009958091E402811105C081E08093E402F1
:1009C0001092C402E091760281E08E0F809376024D
:1009D000F0E0EC53FD4F80818093BB009091760254
:1009E0008091E40223C0907F903C09F061CF85ECB8
:1009F000B2CF8091BD028093BB0085EC8093BC0098
:100A000057CF80939A020E94E00352CFE091BC023C
:100A100081E08E0F8093BC028091BB00F0E0E55630
:100A2000FD4F80839091BC028091BB02981708F023
:100A3000AACFE3CF80919902803208F0A4CFE09151
:100A4000990281E08E0F809399028091BB00F0E0C3
:100A5000E758FD4F8083D1CF85EC8093BC00109286
:100A6000E70280919902803230F4E0919902F0E03F
:100A7000E758FD4F10826091990270E0E091770293
:100A8000F091780289E792E009951092990210CFCF
:100A900010929A02B8CF1F921FB61F9211242F9363
:100AA0003F938F939F93AF93BF93809170029091E8
:100AB0007102A0917202B091730230916F0223E033
:100AC000230F2D3750F50196A11DB11D20936F0204
:100AD0008093700290937102A0937202B09373029C
:100AE00080916B0290916C02A0916D02B0916E02A8
:100AF0000196A11DB11D80936B0290936C02A0938F
:100B00006D02B0936E02BF91AF919F918F913F9113
:100B10002F911F901FBE1F90189526E8230F029655
:100B2000A11DB11DD3CF2F932FB72F938F939F93D9
:100B3000EF93FF93E091DE01F091DF018081E0917E
:100B4000E401F091E50182FD19C090818091E701F7
:100B50008F5F8F732091E801821741F0E091E701E8
:100B6000F0E0E253FE4F958F8093E701FF91EF9104
:100B70009F918F912F912FBF2F9118958081F6CF44
:100B80001F920F920FB60F9211242F933F934F9302
:100B90005F936F937F938F939F93AF93BF93EF93E5
:100BA000FF938EEC91E00E94E701FF91EF91BF91DE
:100BB000AF919F918F917F916F915F914F913F91F5
:100BC0002F910F900FBE0F901F901895CDB7DEB7E5
:100BD000CB56D1090FB6F894DEBF0FBECDBF7894C7
:100BE00084B5826084BD84B5816084BD85B5826032
:100BF00085BD85B5816085BD80916E0081608093E3
:100C00006E0010928100809181008260809381004B
:100C1000809181008160809381008091800081605B
:100C2000809380008091B10084608093B1008091B6
:100C3000B00081608093B00080917A0084608093DE
:100C40007A0080917A00826080937A0080917A00A5
:100C5000816080937A0080917A00806880937A0026
:100C60001092C100E091DE01F091DF0182E080830B
:100C7000E091DA01F091DB011082E091DC01F0916A
:100C8000DD0180E180831092E601E091E201F091C4
:100C9000E30186E08083E091E001F091E101808151
:100CA00080618083E091E001F091E10180818860C2
:100CB0008083E091E001F091E10180818068808390
:100CC000E091E001F091E10180818F7D808387E2F6
:100CD00091E00E9428048CE591E00E94180408E647
:100CE00010E0F80164910F5F1F4F611529F08EEC41
:100CF00091E00E947902F5CF84E291E00E9418040D
:100D0000109208031092090310922A0310922B03E9
:100D10000E94A80183EB90E0909375028093740287
:100D200082EB90E090937802809377028091C901E2
:100D300091E090932C038093B6010E94EF028115FD
:100D400021F081E791E00E94280487E197EBA1ED73
:100D5000B8E38093B7019093B801A093B901B09321
:100D6000BA018091C90191E090932C038093B60160
:100D700010922A0310922B038091CA019091CB010B
:100D8000DC01ED91FC910190F081E02D65E0099589
:100D90008091CA019091CB01DC01ED91FC91019011
:100DA000F081E02D64E609958091CA019091CB0114
:100DB000DC01ED91FC910190F081E02D60E009955E
:100DC0000E94EF02811531F08FEF9FEF9093CD01DC
:100DD0008093CC0120E030E040E057E46091B7011F
:100DE0007091B8018091B9019091BA010E94060CEE
:100DF0006093BF017093C0018093C1019093C201C1
:100E00008FE692E1A3E0BBE38093BB019093BC012A
:100E1000A093BD01B093BE0183E991E00E94280434
:100E200024E1222E312CBB24B3941092CD011092D8
:100E3000CC018091C901B0922C038093B60110922D
:100E40002A0310922B038091CA019091CB01DC01FF
:100E5000ED91FC910190F081E02D62E009950E94F6
:100E6000EF02182F9FEF8111A7C10091C9010E94C5
:100E700038016EA37FA388A799A78091E70281110B
:100E80006EC0B092E702B092E6023FEF30939A0252
:100E90001092BC02B092BB02B092BD028091BD0222
:100EA000000F082B0093BD028091E502813009F00C
:100EB00058C11092E5020E9438016AA77BA78CA74F
:100EC0009DA78091BD028093BB008091C00290914C
:100ED000C102A091C202B091C302892B8A2B8B2B35
:100EE000C1F00E943801C090C002D090C102E090D1
:100EF000C202F090C3022AA53BA54CA55DA5621BCA
:100F0000730B840B950BC616D706E806F90608F492
:100F10004BC08091BC0083FDD4CF35EC3093BC0036
:100F20000E9438016EA77FA788AB99AB8091E7023A
:100F3000813009F41AC18091BC0212E0823010F4B1
:100F40001091BC02A8EEB2E0EBE9F2E08E2F4BE983
:100F500052E0841B811760F581918D93F7CF8091CA
:100F6000C0029091C102A091C202B091C302892B2C
:100F70008A2B8B2B09F481CF0E943801C090C002CC
:100F8000D090C102E090C202F090C3022EA13FA116
:100F900048A559A5621B730B840B950BC616D70683
:100FA000E806F90608F069CF8091BF020E94C601E9
:100FB0001092080310930903123009F0FCC08091CD
:100FC000CA019091CB01DC01ED91FC910284F38583
:100FD000E02D0995AA968FAFAA97A9961FAEA9975B
:100FE0008091CA019091CB01DC01ED91FC910284CA
:100FF000F385E02D0995AA96EEADFFADAA978E2B4D
:101000009F2BBC0180E090E00E94450B2AE037ED69
:1010100043EA5AE368AF79AF8AAF9BAF68AD79AD69
:101020008AAD9BAD0E94060C6CAF7DAF8EAF9FAFBB
:10103000CCACDDACEEACFFAC6091C7017091C801E7
:101040006031F7E27F0709F444C080E090E00E943D
:10105000450B27E137EB41ED58E321966FAF219720
:1010600022967FAF229723968FAF239724969FAF28
:10107000249724966CAD7DAD8EAD9FAD24970E94D4
:10108000060C25966FAF259726967FAF2697279655
:101090008FAF279728969FAF289728962CAD3DAD08
:1010A0004EAD5FAD2897C701B6010E94060C299688
:1010B0006FAF29972A967FAF2A972B968FAF2B97E2
:1010C0002C969FAF2C972C96CCACDDACEEACFFAC45
:1010D0002C97A7019601C701B6010E94730C8115D8
:1010E00009F472C08DE991E00E94180484E291E055
:1010F0000E9418040E9438012B013C0188EEC82E82
:1011000083E0D82EE12CF12C0E9438016419750976
:1011100086099709683E734081059105A8F391E01F
:10112000C91AD108E108F108A8EE4A0EA3E05A1E38
:10113000611C711CC114D104E104F10429F7E1E040
:101140002E1A310809F071CE20E030E0232B09F48B
:1011500063CE0E941402811509F45ECE0E94000045
:101160005BCE45EE4093BC00DBCE8091C0029091F7
:10117000C102A091C202B091C302892B8A2B8B2B92
:1011800009F4D4CE0E943801C090C002D090C102B0
:10119000E090C202F090C3022EA53FA548A959A92C
:1011A000621B730B840B950BC616D706E806F9066F
:1011B00008F0BCCEF9CE9EEF8FEF9093CC018093D8
:1011C000CD0180E090E01DCFC701B6010E94FC0B6D
:1011D000892B19F081EA91E087CF2FEF3FEF4FE79E
:1011E0005FE4C701B6010E94F70B18161CF485EAEC
:1011F00091E07ACF2FEF3FEF4FE75FECC701B601E9
:101200000E94110B87FDF3CF20E030E0A901C70158
:10121000B6010E94110B87FF09C06DE28EEC91E0D0
:101220000E947902F7FAF094F7F8F0942EE632E192
:1012300043E05AE3C701B6010E94A50A7B018C0175
:101240002D966FAF2D972E96FFAE2E972F968FAFC0
:101250002F9760961FAF609760966CAD7DAD8EAD99
:101260009FAD60970E94160BA62E7AA36C010E9478
:10127000450B61966FAF619762967FAF62976396F9
:101280008FAF639764969FAF649764962CAD3DAD26
:101290004EAD5FAD64976596EFAE65976696FFAE0F
:1012A000669767960FAF679768961FAF68976896BF
:1012B0006CAD7DAD8EAD9FAD68970E94A40A7B0199
:1012C0008C0119A24E0121E2820E911CAB968FAEC9
:1012D000AB97AC969FAEAC97AAAA3AA13BABCCAA6F
:1012E000DDAA6A2D732FC6012AE030E040E050E00D
:1012F0000E947C0AA22E3AA36A01605DD4016E931B
:101300004D012AA93BA94CA95DA92A303105410507
:10131000510510F7CD010E9418046EE28EEC91E0A9
:101320000E94790293E0D92E20E030E040E251E4BF
:101330006996EFAE69976A96FFAE6A976B960FAFA4
:101340006B976C961FAF6C976C966CAD7DAD8EAD48
:101350009FAD6C970E94060C7B018C016D966FAF60
:101360006D976E96FFAE6E976F968FAF6F97A09644
:101370001FAFA097A0966CAD7DAD8EAD9FADA09731
:101380000E94160B9B0140E050E019A2AB968FAD76
:10139000AB978EABAC969FADAC979FAB922EA32E26
:1013A000842EC52E2AA33BA34CA35DA3CA01B90179
:1013B0002AE030E040E050E00E947C0A605DAEA987
:1013C000BFA96E93BFABAEAB8AA19BA1ACA1BDA1DF
:1013D0000A97A105B10530F78EA99FA90E941804AC
:1013E000692D7A2D882D9C2D0E94450BA1966FAFFB
:1013F000A197A2967FAFA297A3968FAFA397A4962B
:101400009FAFA497A4962CAD3DAD4EAD5FADA49714
:10141000A596EFAEA597A696FFAEA697A7960FAF97
:10142000A797A8961FAFA897A8966CAD7DAD8EAD77
:101430009FADA8970E94A40A7B018C01DA9409F061
:1014400073CF54CEEEECF1E01382128248EE53E0FB
:1014500060E070E0448355836683778384E091E0A5
:101460009183808385EC90E09587848784EC90E07D
:101470009787868780EC90E0918B808B81EC90E061
:10148000938B828B82EC90E0958B848B86EC90E042
:10149000978B868B118E128E138E148EAAEAB1E072
:1014A00013961C921E92129714964D935D936D9312
:1014B0007C93179786E191E011969C938E93E7EBCE
:1014C000F1E0148615861686178680E197E2918BE7
:1014D000808B80E4828BB48BA38B1082118212826A
:1014E0001382108611861286138614821582168244
:1014F0001782168A158A0895A1E21A2EAA1BBB1B11
:10150000FD010DC0AA1FBB1FEE1FFF1FA217B307CF
:10151000E407F50720F0A21BB30BE40BF50B661FE5
:10152000771F881F991F1A9469F7609570958095A9
:1015300090959B01AC01BD01CF010895EE0FFF1FF7
:101540000590F491E02D09945058BB27AA270E94DA
:10155000BC0A0C94BD0B0E94AF0B38F00E94B60B76
:1015600020F039F49F3F19F426F40C94AC0B0EF4E0
:10157000E095E7FB0C94A60BE92F0E94CE0B58F3E5
:10158000BA17620773078407950720F079F4A6F568
:101590000C94F00B0EF4E0950B2EBA2FA02D0B013E
:1015A000B90190010C01CA01A0011124FF27591BA8
:1015B00099F0593F50F4503E68F11A16F040A22FAE
:1015C000232F342F4427585FF3CF4695379527951F
:1015D000A795F0405395C9F77EF41F16BA0B620B1E
:1015E000730B840BBAF09150A1F0FF0FBB1F661F65
:1015F000771F881FC2F70EC0BA0F621F731F841FA8
:1016000048F4879577956795B795F7959E3F08F0CD
:10161000B0CF9395880F08F09927EE0F979587958F
:1016200008950E94820B08F481E008950E94D60B71
:1016300088F09F5798F0B92F9927B751B0F0E1F093
:10164000660F771F881F991F1AF0BA95C9F714C043
:10165000B13091F00E94F00BB1E008950C94F00BC2
:10166000672F782F8827B85F39F0B93FCCF386957C
:1016700077956795B395D9F73EF4909580957095D9
:1016800061957F4F8F4F9F4F0895E89409C097FB56
:101690003EF490958095709561957F4F8F4F9F4F49
:1016A0009923A9F0F92F96E9BB279395F69587958D
:1016B00077956795B795F111F8CFFAF4BB0F11F450
:1016C00060FF1BC06F5F7F4F8F4F9F4F16C08823F7
:1016D00011F096E911C0772321F09EE8872F762F2D
:1016E00005C0662371F096E8862F70E060E02AF06E
:1016F0009A95660F771F881FDAF7880F969587955A
:1017000097F90895990F0008550FAA0BE0E8FEEF2E
:1017100016161706E807F907C0F012161306E407B5
:10172000F50798F0621B730B840B950B39F40A26AE
:1017300061F0232B242B252B21F408950A2609F48C
:10174000A140A6958FEF811D811D089597F99F6790
:1017500080E870E060E008959FEF80EC0895002439
:101760000A941616170618060906089500240A9406
:1017700012161306140605060895092E0394000C8C
:1017800011F4882352F0BB0F40F4BF2B11F460FF1B
:1017900004C06F5F7F4F8F4F9F4F089557FD905844
:1017A000440F551F59F05F3F71F04795880F97FB25
:1017B000991F61F09F3F79F08795089512161306DF
:1017C0001406551FF2CF4695F1DF08C0161617060E
:1017D0001806991FF1CF8695710561050894089543
:1017E000E894BB2766277727CB0197F908950E94D5
:1017F000820B08F48FEF08950E94D60B80E090E0F2
:1018000020F419F40EF40297839508950E94190CA0
:101810000C94BD0B0E94AF0B38F00E94B60B20F069
:10182000952311F00C94A60B0C94AC0B11240C9482
:10183000F10B0E94CE0B70F3959FC1F3950F50E012
:10184000551F629FF001729FBB27F00DB11D639F72
:10185000AA27F00DB11DAA1F649F6627B00DA11D18
:10186000661F829F2227B00DA11D621F739FB00DBE
:10187000A11D621F839FA00D611D221F749F33272E
:10188000A00D611D231F849F600D211D822F762FC7
:101890006A2F11249F5750409AF0F1F088234AF0A4
:1018A000EE0FFF1FBB1F661F771F881F9150504010
:1018B000A9F79E3F510580F00C94A60B0C94F10BF8
:1018C0005F3FE4F3983ED4F3869577956795B79597
:1018D000F795E7959F5FC1F7FE2B880F911D9695B1
:1018E000879597F908950E94820B880B990B0895AC
:0418F000F894FFCF9A
:1018F400000000007902C6024A02590209023602B7
:10190400280200000000DB000A018500B100880005
:101914008F00A2000D0A002F686F6D652F73746F1E
:101924006E65642F41726475696E6F2F494E413242
:1019340032365F6D657373656E2F494E41323236B0
:101944005F6D657373656E2E696E6F00494E41322B
:1019540032365F4C49425F56455253494F4E3A2006
:1019640000636F756C64206E6F7420636F6E6E65B8
:1019740063742E2046697820616E64205265626F1C
:101984006F74000A5350414E4E554E47006E616EBF
:0A19940000696E66006F76660000C1
:00000001FF
